:4000000000100020110000001D1300001D13000080B500AF01F086F980B500AF134B134A12688021C9020A431A60182002F0C4F80E4B0E4A11680E4A0A401A600D4B0E4AA3
:400040001A600E4B10221A600D4B20221A600D4B802212061A600C4B0C4A1A600C4B0D4A1A600D4B00221A60BD4680BD00010B40FFFFFBFF04010B40060000800802024078
:400080000C02024008010B40000002400E00008040000240CF0000800C020B4080B582B000AF72B6454B01221A70FB1D00221A7023E0FB1D1A78131C5B009B185B00404A94
:4000C0009B183B603B681A78597809020A43997809040A43DB781B0613431A1C3B6819795B791B020B439BB2101C191C01F098F9FB1D1A78FB1D01321A70FB1D1B78012BEF
:40010000D7D9304A304B101C191C01F099F92F4B992212041A602E4BEE2212021A602D4BEE221A602C4B992212041A602B4B992212041A602A4B992212041A60294B01227E
:400140001A60294B02221A60284B284A1278D2B202210A43D2B21A70254B254A1278D2B23C218A43D2B214210A43D2B21A701F4B1E4A1278D2B216210A43D2B21A701D4B7D
:4001800020221A601C4BC72292021A601B4B20221A601B4BC02252031A601A4BD82212011A60194B03221A60184B24221A60FFF733FF01F085F9BD4602B080BD1C700F4076
:4001C000FC4700000848000028480000000001400C0001401000014000500F4010500F4030500F402000004000800F4000700F4001700F4000000440080004401800044066
:400200000801044008030440000404400804044010B5064C2378002B07D1054B002B02D0044800E000BF0123237010BDE000002000000000A047000008B5084B002B03D024
:400240000748084900E000BF07480368002B03D0064B002B00D0984708BDC04600000000A0470000E4000020C80000200000000080B500AF00F00CF800F0F4F900F0D4FD48
:4002800000F076FF62B600F03FFE00F02FFFFAE780B582B000AFFB1D00221A7023E0FB1D1A78254B920001214942D150BB1D00221A700FE0BB1D1978FB1D1A781F4B490005
:4002C0008A18520001214942D152BB1D1A78BB1D01321A70BB1D1B78052BEBD9FB1D1A78FB1D01321A70FB1D1B78012BD7D9144B114A1A607B1D00221A7013E07B1D1A7841
:400300007B1D1B7899000D4BC9180E4B9200D1507B1D1B780C4A0021D1547B1D1A787B1D01321A707B1D1B78052BE7D9074B00221A70BD4602B080BD5801002028010020A1
:400340001801002040010020200100201C01002080B500AF024B1B78181CBD4680BDC0461C01002080B582B000AF021CFB1D1A70FB1D1B78024AD35C181CBD4602B080BDC8
:4003800020010020F0B587B000AF381C17300025057000250026BD60FE60F81D0025057021E0F81D05782B48AD00285800280EDBF81D05782748AD002858011CC017021C43
:4003C000BD68FE686D185641BD60FE6006E0381C17300578381C173001350570F81D0578F81D01350570F81D00780128D9D93A1C1732127802218A1A012A24DD3A1C173222
:40040000127802218A1A131CD217141CB868F9681A1C231C02F0CEFB031C0C1C3B603B68C82B03DD0C4BC8221A700BE03B68002B03DC094B01221A7004E03B68DAB2064B52
:400440001A7003E002E0044B00221A70BD4607B0F0BDC046580100201C010020F0B589B000AF051CF81D0570381C1F3000250570002500263D617E61381C0F3000250570A5
:400480002FE0F81D0678381C0F3005784448760075196D00285A00B2002814DBF81D0678381C0F3005783E48760075196D00285A00B2011CC017021C3D697E696D185641B9
:4004C0003D617E6106E0381C1F300578381C1F3001350570381C0F300578381C0F3001350570381C0F3000780128CAD93A1C1F32127802218A1A012A49DD3A1C1F3212788C
:4005000002218A1A131CD217141C386979691A1C231C02F04FFB031C0C1C181C211C02F087FB031CBB603C1C0E34B86802F066FB031C23703B1C0E331B78002B04D13B1CD1
:400540000E3301221A7008E03B1C0E331B78632B03D93B1C0E3363221A70FB1D1C783B1C0E331D783B1C0E331B78181C0A2102F0B5FA0B1CDBB2EB1A181C0A2102F0B8FAA9
:40058000031CDBB20133DAB2064B1A5504E0FB1D1B78044A0021D154BD4609B0F0BDC046280100202001002080B582B000AF78600B4B1B687A6812681A60094B1B681A1D48
:4005C000074B1A60064B1A68064B9A4202D9044B054A1A60FFF7D6FEBD4602B080BDC046180100205C0100205801002080B582B000AF021C3960FB1D1A70FB1D1A78174BD0
:400600009200D3583A6812881A80FB1D1B78134A99008A58911C114A9B009950FB1D1A780E4B9200D258FB1D1B789B00991C0C4BCB189A4209D9FB1D1A78FB1D1B78990078
:40064000074BC918054B9200D150FB1D1B78181CFFF704FFBD4602B080BDC046400100202801002080B500AF01F0F4F801F024FCBD4680BDF0B597B000AF031C3A1C3F3237
:4006800013706B461E1C594B1A68531E3B65131C1C1C00231D1C630FE9007963796B19437963E300131CBB620023FB62B96A4B0FF96AC9007962796A19437962BB6ADB0032
:4006C000131C0733DB08DB006946C91A8D466B460033FB64454B1B685A1EBA641A1CBA610022FA61B9694A0FF969C9007961796911437961BA69D2001A1CBA600022FA6063
:40070000B9684A0FF968C9007960796811437960BA68D2000733DB08DB006946C91A8D466B4600337B64FB6C0F221A707B6C00221A703B1C573300221A703B1C43330022E9
:400740001A703B1C3F331B78FF2B0DD1FA6C274B1B684220111C1A1C002301F009F9021C3B1C57331A7012E03B1C3F331B78002B0DD17A6C1D4B1B684220111C1A1C0023BC
:4007800001F0F6F8021C3B1C57331A70FFE7C04601F070FB021C02231340F9D03C2001F0ABFE3B1C57331B78002B18D13B1C4333181C00210022002300F010FA031C002B01
:4007C0000DD13B1C3F331B781B09DAB23B1C43331B789A4201D1002302E0FF2300E0FF23B5465BB2181CBD4617B0F0BDCC000020F0B597B000AF031C3A1C3F3213706B4684
:400800001E1C594B1A68531E3B65131C1C1C00231D1C630FE9007963796B19437963E300131CBB620023FB62B96A4B0FF96AC9007962796A19437962BB6ADB00131C07337B
:40084000DB08DB006946C91A8D466B460033FB64454B1B685A1EBA641A1CBA610022FA61B9694A0FF969C9007961796911437961BA69D2001A1CBA600022FA60B9684A0FD0
:40088000F968C9007960796811437960BA68D2000733DB08DB006946C91A8D466B4600337B64FB6C47221A707B6C40221A703B1C573300221A703B1C4333FF221A7001F0F0
:4008C000FBFA3B1C3F331B78072B0DD1FA6C264B1B684220111C1A1C002301F049F8021C3B1C57331A7012E03B1C3F331B78002B0DD17A6C1C4B1B684220111C1A1C00238B
:4009000001F036F8021C3B1C57331A70FFE7C04601F0B0FA021C02231340F9D03C2001F0EBFD3B1C57331B78002B16D13B1C43330020191C0022002300F050F9031C002B84
:400940000BD13B1C43331B783A1C3F3212789A4201D1002302E0FF2300E0FF23B5465BB2181CBD4617B0F0BDCC000020F0B597B000AF031C3A1C3F3213706B461E1C594BE1
:400980001A68531E3B65131C1C1C00231D1C630FE9007963796B19437963E300131CBB620023FB62B96A4B0FF96AC9007962796A19437962BB6ADB00131C0733DB08DB001A
:4009C0006946C91A8D466B460033FB64454B1B685A1EBA641A1CBA610022FA61B9694A0FF969C9007961796911437961BA69D2001A1CBA600022FA60B9684A0FF968C900E3
:400A00007960796811437960BA68D2000733DB08DB006946C91A8D466B4600337B64FB6C87221A707B6C80221A703B1C573300221A703B1C4333FF221A703B1C3F331B78AD
:400A4000FF2B0DD1FA6C274B1B684220111C1A1C002300F08DFF021C3B1C57331A7012E03B1C3F331B78002B0DD17A6C1D4B1B684220111C1A1C002300F07AFF021C3B1C38
:400A800057331A70FFE7C04601F0F4F9021C02231340F9D03C2001F02FFD3B1C57331B78002B18D13B1C4333002000211A1C002300F094F8031C002B0DD13B1C3F331B7891
:400AC0005B09DAB23B1C43331B789A4201D1002302E0FF2300E0FF23B5465BB2181CBD4617B0F0BDCC00002080B584B000AF0A1CFB1D011C1970BB1D1A70BB1D1B78FF2B3D
:400B000018D1FB1D1B780122111C99400B1CDAB2314B1B78DBB21343DBB2DAB22E4B1A702D4B1B78402252421343DAB23B1C0C331A7020E0BB1D1B78002B1AD1FB1D1B7808
:400B40000122111C99400B1CDBB2DB43DBB2224A1278D2B21340DBB2DAB21F4B1A701E4B1B78402252421343DAB23B1C0C331A7001E0FF232BE03B1C0C334220191C0122C1
:400B8000002300F0F5FE021C3B1C0F331A70C04601F070F9021C02231340F9D03C2001F0ABFC3B1C0C3300200021002200F016F83B1C0F331B78002B08D13B1C0C331A78EC
:400BC000054B1B789A4201D1002300E0FF235BB2181CBD4604B080BDFC00002080B586B000AFF860B9607A603B603B1C173300221A703B1C143300221A703B1C1433002297
:400C00005A703C2001F078FC01F01AF93B1C14334220191C0222002300F038FF021C3B1C17331A70C04601F025F9021C01231340F9D03B1C17331B78002B44D101F0F6F873
:400C4000031C002B3FD0FB68002B06D03B1C14331B781B09DAB2FB681A70BB68002B09D03B1C14331B781A1C0E2313405B10DAB2BB681A707B68002B18D03B1C14331B780C
:400C80001A1C012313400AD03B1C14335B789B09DBB204221343DAB27B681A7006E03B1C14335B789B09DAB27B681A703B68002B07D03B1C14335A783F231340DAB23B68A9
:400CC0001A70002300E0FF235BB2181CBD4606B080BDC04680B586B000AF78603B1C143300221A703B1C143300225A703B1C0C33214A03CA03C301F0A3F84820012100F0A8
:400D00005BFF021C3B1C0C331A603B1C0C331B68002B25D1002001F035F8031CDAB23B1C14331A70012001F02DF8031CDAB23B1C14335A7000F0C8FF021C3B1C0C335A6071
:400D40003B1C14331B785A003B1C14335B78DB09DBB2D3181A1C28327B681A60002306E000F0B2FF7B68012252421A60FF235BB2181CBD4606B080BDAC47000080B584B0BB
:400D800000AF021C3960FB1D1A703B1C0833FA1D12781A703B1C08333220191C0122002300F0E6FD031CFB60C04601F063F8021C02231340F9D0FB68002B2AD13C2001F03B
:400DC0009BFB3B1C08333220191C0122002300F05DFE031CFB60C04601F04CF8021C01231340F9D0FB68002B13D101F01FF8031C002B0ED03B1C08331B78DBB25BB2002B14
:400E000007DB3B1C08331B781A1C3B681A80002304E03B68012252421A80FF235BB2181CBD4604B080BDC04680B582B000AF1C4B00221A601B4B00221A801A4B00225A8044
:400E4000184B00229A80174B0022DA80154B00221A81144B00225A81134B181C00F08CFC124B181C00F030FB00F0C4FB01F0F4F801235B423B600E4B7B607A683B689A4249
:400E800001D93B687B607B68181C01F011F9012000F074FB012001F07FF8BD4602B080BD7001002060010020D10E0000B50E0000006CDC0280B500AF044B01221A700020CF
:400EC00000F05CFB01F0EAF8BD4680BD0001002080B500AF084B01221A70002001F05CF800F012FA031C1A1C044B1A70044B054A12681A60BD4680BDFF0000206C01002086
:400F0000C00F0740CC0F074080B582B000AF724B1B78002B00D1DBE06F4B00221A706F4B1B78DBB2002B34D16D4B1B78463B112B2DD89A006B4BD3181B689F46FFF708FA44
:400F4000031C181C00F01AF922E00720FFF750FC031C181C482100F05FF919E00020FFF747FC031C181C4B2100F056F910E05B4B01221A700CE0594B03221A7008E0574B50
:400F800004221A7004E0554B05221A7000E0C04698E0524B1B78DBB2012B16D1504B1B78312B07D1FF20FFF765FB031C181C00F057F906E00020FFF75DFB031C181C00F01D
:400FC0004FF9464B00221A707CE0444B1B78DBB2032B16D1424B1B78312B07D1FF20FFF7C5FC031C181C00F057F906E00020FFF7BDFC031C181C00F04FF9384B00221A7020
:4010000060E0364B1B78DBB2042B3ED1364B1B78DBB2002B07D1324B1B78303BDBB2DAB2314B1A704EE02E4B1B78312B0ED12E4B1B78DBB2DBB2013BDBB2181CFF21FFF7A5
:4010400053FD031C181C00F043F917E0244B1B78302B0ED1244B1B78DBB2DBB2013BDBB2181C0021FFF740FD031C181C00F030F904E001235B42181C00F02AF91A4B002222
:401080001A70164B00221A701CE0144B1B78DBB2052B17D1124B1A78FB1D313A1A70FB1D1B78052B0ED8FB1D1B78181CFFF75AF9031CFA1D1278101C191C00F07FF8074B47
:4010C00000221A70064B00221A70012000F064FFBD4602B080BDC046FF000020FD0000206C010020B4470000FE00002080B582B000AF1C4B1B78002B30D01A4B00221A70AD
:40110000194B181CFFF7E6FD174B181CFFF74CFAFB1D00221A701AE0FB1D1B785A00134BD318FA1D1278101C191CFFF727FEFB1D1B785A000D4BD318FA1D1278101C191CF9
:40114000FFF754FAFB1D1A78FB1D01321A70FB1D1B78052BE0D9012000F010FABD4602B080BDC04600010020700100206001002080B500AF00F03EFABD4680BD80B582B01F
:4011800000AF021CFB1D1A70FB1D1B78002B09D0542000F065FAFB1D1B78181C00F060FA002306E0582000F05BFA542000F058FAFF235BB2181CBD4602B080BD80B582B0ED
:4011C00000AF0A1CFB1D011C1970BB1D1A70BB1D1B780A2B13D8BB1D1B78002B0FD0532000F03EFAFB1D1B783133181C00F038FABB1D1B78181C00F033FA002306E05820BD
:4012000000F02EFA532000F02BFAFF235BB2181CBD4602B080BDC04680B582B000AF0A1CFB1D011C1970BB1D1A70FB1D1B785BB2002B06D1BB1D1B78181C00F011FA0023E0
:4012400008E0582000F00CFABB1D1B78181C00F007FAFF235BB2181CBD4602B080BDC04680B582B000AF021CFB1D1A70FB1D1B785BB2002B04D1572000F0F2F9002306E044
:40128000582000F0EDF9572000F0EAF9FF235BB2181CBD4602B080BD80B582B000AF021CFB1D1A70FB1D1B785BB2002B04D1562000F0D6F9002306E0582000F0D1F95620CD
:4012C00000F0CEF9FF235BB2181CBD4602B080BD80B582B000AF021CFB1D1A70FB1D1B785BB2002B04D1462000F0BAF9002306E0582000F0B5F9462000F0B2F9FF235BB2FC
:40130000181CBD4602B080BD80B500AF00F012FA031CDBB2181CBD4680BDC04680B500AFFEE7C04680B586B000AF224B7B61224B3B61204B7B6135E03B691B68FB603B69C4
:401340005B68BB603B699B683B6000237B600CE0FB681A68BB681A60BB680433BB60FB680433FB607B6804337B607A683B689A42EED13B69DB683B6000237B6008E0BB68D7
:4013800000221A60BB680433BB607B6804337B607A683B689A42F2D13B6910333B617B69013B7B617B69002BC6D103F0CBF9FEF75FFFFEE701000000BC49000080B582B082
:4013C00000AF00237B600FE07B68032B04D8104B7A689200D35800E00E4B0F4A796889008B507B6801337B607B682F2BECD9FEF755FE0A4B00221A608023DB058022D2056A
:40140000126801210A431A60BD4602B080BDC046000000001D13000000000020C000002080B582B000AF786039607A683B68101C00211A1C03F0ACF9BD4602B080BDC04602
:4014400080B586B000AF7860396000233B6100237B612EE07B699B007A68D3181B68BB603B1C0F33BA681A70BB68FF229343BB6017E03B695B003A68D3181B781A1CBB6842
:40148000D3183A69520039688A1852781A703B6901333B613B1C0F331A783B1C0F33013A1A703B1C0F331B78002BE2D17B6901337B617B69072BCDD9BD4606B080BDC04602
:4014C00080B500AFBD4680BD80B582B000AF786000F04AF87B68181C00F008F8032000F011F800F037F8BD4602B080BD80B582B000AF7860024B7A681A64BD4602B080BDE7
:401500000000002090B585B000AF021CFB1D1A700623FB603C1C0B3400F044FE031C23700B4B0B4A1268C021101C8843011CFA1D1078FA68041C9440221C0A431A603B1C38
:401540000B331B78181C00F031FEBD4605B090BD00E400E080B500AF024B01221A60BD4680BDC04600E100E080B500AF024B01221A60BD4680BDC04680E100E080B584B0EB
:4015800000AF021CFB1D1A700E4B1B68DAB23B1C0F3340218A431A70FB1D1B789B01DAB240231340D9B23B1C0F333A1C0F3212780A431A70034B3A1C0F3212781A60BD4672
:4015C00004B080BD0001044080B500AF00F05EF8BD4680BD80B500AF054B054A1268802109060A431A6000F017F8BD4680BDC0460000074080B500AF064B1B78002B04D183
:40160000FFF7E2FF034B01221A70FFF7E3FFBD4680BDC0460401002080B500AFBD4680BD80B582B000AF00237B60044B1B687B607B68181CBD4602B080BDC0464003074017
:4016400080B582B000AF054B1A680F2313407B607B68181CBD4602B080BDC0460803074080B582B000AF7860C046064B1A680F231340082BF9D0044B7A681A60BD4602B019
:4016800080BDC046080207404002074080B500AF174B184A1A60184B00221A60174B01221A60174B174A1A60174B07221A60174B00221A60164B01221A60164B114A1A6079
:4016C000154B00221A60154B00221A60144B00221A60144B00221A60134B00221A60134B04221A60124B00221A60BD4680BDC046000007400B00000240000740480007405B
:4017000000030740070000800403074010030740440007400002074004020740880E0740C80E0740480F0740080F0740C80F0740880F074080B582B000AF00237B60FFF713
:401740007FFF031C002B03D0FFF76AFF031C7B60084B1A68D8239B00134005D000237B60044BD82292001A607B68181CBD4602B080BDC046C00F074080B582B000AF78607C
:4017800000F048F87B68181C00F008F8032000F011F800F035F8BD4602B080BD80B582B000AF7860024B7A68DA66BD4602B080BD0000002090B585B000AF021CFB1D1A706F
:4017C0001E23FB603C1C0B3400F0ECFC031C23700A4B0A4A126892009108FA1D1078FA68041C9440221C0A431A603B1C0B331B78181C00F0DBFCBD4605B090BD08E400E0F0
:4018000080B500AF024B802212011A60BD4680BD00E100E080B500AF024B802212011A60BD4680BD80E100E080B500AF00F02CF8BD4680BD80B500AF054B054A1268802190
:4018400009060A431A6000F017F8BD4680BDC0460000064080B500AF064B1B78002B04D1FFF7E2FF034B01221A70FFF7E3FFBD4680BDC0460C01002080B500AF0A2000F024
:4018800005FEBD4680BDC04680B500AF234B234A12680C210A431A60214B00221A60214B214A1A60214B224A1A60224B00221A60214B00221A60214B1D4A1A60204B00221C
:4018C0001A600A2000F0F8FD0A20032100F08AFD1C4B0A20191C00F05FFD1B4B00221A601A4B00221A601A4B00221A60194B1422FF321A60184B00221A60184B00221A6041
:40190000174B10221A70174B00221A80164B00221A60164B00221A60BD4680BD700006400000064060000640770800800003064007010080040306401003064000020640D1
:401940000402064069250000C80E0640880E0640480F0640080F0640C80F0640880F06407401002084010020940100207C01002080B586B000AFF860B9607A603B600423EE
:401980007B61BB68002B20D0324B1B78DBB2102B0CD10A2000F090FD2F4B1A680123134001D0082300E000237B610EE0294B1B78DBB2602B09D1294B1B889BB20822934318
:4019C0009AB2264B1A8000237B617B69002B38D1204B28221A70224B00221A60214B00221A60214B7A681A60204BBA681A603B68DAB21F4B1A70FB685A00FF231340FB60AA
:401A0000164B1B889BB2022293439AB2134B1A80184B194A1A60194B40221A603A680123134005D000F060FA154BFA681A6005E0134BFA681A60134B02221A60124B402249
:401A40001A600A2000F022FD7B69181CBD4606B080BDC046740100206400064084010020780100207C01002080010020980100208C010020000F064017030000800F06403A
:401A80004002064068000640880F064080B586B000AFF860B9607A603B6004237B61BB68002B20D0374B1B78DBB2102B0CD10A2000F002FD344B1A680123134001D008238B
:401AC00000E000237B610EE02E4B1B78DBB2602B09D12E4B1B889BB2082293439AB22B4B1A8000237B617B69002B43D1254B29221A70274B00221A60264B7A681A60264BA3
:401B0000BA681A603B68DAB2244B1A70FB685A00FF23134001221343FB601C4B1B889BB2012293439AB2194B1A801D4B1D4A1A603A680123134005D000F0D6F91A4BFA6884
:401B40001A6005E0184BFA681A60184B02221A60104B1B68072B03D8154B04221A6009E0144B144A1268802149000A431A60104B08221A600A2000F089FC7B69181CBD4651
:401B800006B080BD7401002064000640840100209401002090010020880100208C010020000F0640170300004002064068000640C80F06406000064080B584B000AF78603A
:401BC00039600023FB600423BB60384B1B78DBB2102B66D1364B1A680123134002D00823BB605EE00A2000F067FC7B685A00FF2313407B603B68002B03D12C4B24221A70B4
:401C000006E02A4B25221A707B68012213437B60284B7A681A60284B284A1A60284B02221A60C046244B1A680823FF331340F9D0214B1A680423134002D00023BB601CE01E
:401C40001D4B1A680223134002D00223BB6014E0194B1A680123134007D0144B10221A700123BB600123FB6007E0104B10221A7080235B00BB600123FB600F4B0822FF32A4
:401C80001A60FB68002B0CD00E4B0E4A1268520052081A600B4B0B4A1268802109060A431A60BB68181CBD4604B080BD740100206400064040020640000F064017030000D2
:401CC000680006400000064080B582B000AF00237B6004233B60264B1B78DAB220231340DBB2002B3ED0234B234A116820220A4001D0182200E010221A60C0461F4B1A68C5
:401D00001223FF331340F9D01C4B1A681023134002D000233B600EE0184B1A680123134004D001233B6001237B6004E080235B003B6001237B60114B1222FF321A600C4B37
:401D400010221A707B68002B0CD00D4B0C4A1268520052081A600A4B094A1268802109060A431A603B68181CBD4602B080BDC046740100206800064064000640000F0640C5
:401D80000000064080B584B000AF786001235B42FB601F4B1B78DAB220231340DBB2002B31D0C0461B4B1A680423134005D11A4B1A680223FF331340F4D0164B1A6804235C
:401DC000134010D0154B1B68FB60124B04221A607B68002B03D1124B04221A6013E00C4B60221A700FE00C4B0E4A1A600E4B0E4A1268520052081A600B4B0B4A1268802111
:401E000009060A431A60FB68181CBD4604B080BD74010020C00F0640000F06404003064068000640170300000000064080B500AF024B1B68181CBD4680BDC04694010020C8
:401E400080B500AF0A2000F037FB084B00221A60074B1B889BB2012293439AB2044B1A800A2000F013FBBD4680BDC046940100208401002080B582B000AF0A2000F01CFBC4
:401E80000B4B1B889BB27B600A4B1B78DAB220231340DBB2002B03D07B68042213437B600A2000F0F3FA7B68181CBD4602B080BD840100207401002080B582B000AF0A20A8
:401EC00000F0FAFA074B1B889BB27B60054B00221A800A2000F0DAFA7B68181CBD4602B080BDC0468401002080B582B000AF264B1B687B60C04600F00BF9031C002BFAD040
:401F0000002000F013F9214B204A12680F218A431A601F4B1E4A1268520052081A607A682023134011D0002000F000F90A2000F007FB012000F0FAF8C04600F01BF9031CA2
:401F4000002BFAD00A2000F0FBFA002000F0EEF80A2000F0F5FA0F4B01221A600C4B0C4A1268802109060A431A60084B074A12680F218A430E210A431A60012000F0D6F8D9
:401F8000BD4602B080BDC0466400064010000140000006406800064080B584B000AF021CFB1D1A700E4B1B68DAB23B1C0F3308218A431A70FB1D1B78DB00DAB20823134051
:401FC000D9B23B1C0F333A1C0F3212780A431A70034B3A1C0F3212781A60BD4604B080BD0000044090B583B000AF114B181C00F05FF80F4B181C00F071F8FC1D00F0D2F8EC
:40200000031C23700B4B0B4A1278D2B210210A43D2B21A70FB1D1B78181C00F0C7F800F069F8012000F02AF8BD4603B090BDC046FF6BDC0293000F4080B500AF054B054AE1
:402040001278D2B2802149420A43D2B21A70BD4680BDC04671000F4080B500AF064B1B78002B04D1FFF7BEFF034B01221A70FFF7E3FFBD4680BDC0461401002080B582B095
:4020800000AF021CFB1D1A70034BFA1D12781A70BD4602B080BDC04683000F4080B500AF024B1B78DBB2181CBD4680BD63000F4080B582B000AF7860024B7A681A60BD465D
:4020C00002B080BD80200F4080B500AF024B1B68181CBD4680BDC04600210F4080B582B000AF7860024B7A681A60BD4602B080BD00200F4080B500AF01E0FFF7E5FFFFF7D7
:40210000CDFF031C1A1C08231340F6D1BD4680BD80B500AF044B1A68022313405B08DBB2181CBD4680BDC0460404044080B584B000AF021CFB1D1A700D4B1B68DAB23B1C80
:402140000F3301218A431A70FB1D1A7801231340D9B23B1C0F333A1C0F3212780A431A70034B3A1C0F3212781A60BD4604B080BD0004044080B500AF044B1B68DAB20123DC
:402180001340DBB2181CBD4680BDC046040404400230800804D0C0460138FDD1C046C046C0467047EFF3108072B6704780F310887047C046C046C04690B585B000AF7860EF
:4021C0007B68022B00D8BAE07B68302B00D9B6E05E4B1B78DBB21A1C7B689A420AD35C4A3B1C0F3312781A705A4A3B1C0E3312781A703FE0584B1B78DBB21A1C7B689A429B
:402200000AD3564A3B1C0F3312781A70544A3B1C0E3312781A702DE0524B1B78DBB21A1C7B689A420AD3504A3B1C0F3312781A704E4A3B1C0E3312781A701BE04C4B1B78DE
:40224000DBB21A1C7B689A420AD34A4A3B1C0F3312781A70484A3B1C0E3312781A7009E0464A3B1C0F3312781A70454A3B1C0E3312781A707B68DA1E3B1C0C3341498A5C3E
:402280001A703C1C0B34FFF78DFF031C23703B1C0C331B782F2B0DD97B682A2B0AD93A4B19221A600520FFF773FF3B1C0D3319221A7007E0344B1B68D9B23B1C0D333F22B6
:4022C0000A401A703A1C0C323B1C0D3312781B789A4208D22C4B7A68033A2A498A5C1A600520FFF755FF294B7A68254952181278D2B21A60264B3A1C0F3212781A60254B02
:402300003A1C0E3212781A60052000F019F93A1C0C323B1C0D3312781B789A4208D91A4B7A68033A17498A5C1A600520FFF730FF3B1C0B331B78181CFFF738FF02E00020BE
:4023400000F0D0F8BD4605B090BDC046C0F1FF0FC1F1FF0FC2F1FF0FC3F1FF0FC4F1FF0FC5F1FF0FC6F1FF0FC7F1FF0FC8F1FF0FC9F1FF0FCAF1FF0FCBF1FF0FCCF1FF0F99
:40238000CDF1FF0F284900002CFF0B4028FF0B401CFF0B4020FF0B4080B584B000AF021C3960FB1D1A7080239B05FB60FB1D1B781F2B02D9002000F095F8FB1D1B781033BE
:4023C0009B00FA68D3181B68BB60FB1D1B7810339B00FA68D3183A681A60BB68181CBD4604B080BD90B587B000AF0A1CFB1D011C1970BB1D1A70BB1D1B78032B02D9002015
:4024000000F070F8FB1D1B781F2B02D9002000F069F8FB1D1A7803231340DB0006337B613C1C1334FFF7BEFE031C2370FB1D1B789B08DBB29B0014495B181B68FB607B69E5
:402440000322111C99400B1CDA43FB681340FB60BB1D1A787B69111C99400B1CFA681343FB60FB1D1B789B08DBB29B00064A9B18FA681A603B1C13331B78181CFFF796FE0B
:40248000BD4607B090BDC04600E400E080B582B000AF021CFB1D1A70064BFA1D11781F220A400121081C9040021C1A60BD4602B080BDC04600E100E080B582B000AF021C5E
:4024C000FB1D1A70064BFA1D11781F220A400121081C9040021C1A60BD4602B080BDC04680E100E080B582B000AF021CFB1D1A7001BEBD4602B080BD80B582B000AF786062
:4025000008E00C4B1B68181CFFF742FE7B680A4A9B187B607A6880231B029A42F1D8074B1B687A685343181CFFF732FEBD4602B080BDC046DC0000200080FFFFD400002056
:4025400080B582B000AF021CBB1D1A80BB1D1B88044A12785343181CFFF71AFEBD4602B080BDC046D800002080B582B000AF00233B60C34B1B68002B02D0C14B1B689847CA
:40258000C04B1A680123134002D0BF4B00221A60BE4B1B78DAB220231340DBB2002B3CD0BB4B1A6880235B0013400AD0B94B1B889BB2C022920013439AB2B64B1A800123A1
:4025C0003B60B34B1A68012313400AD0B14B1B889BB29022920013439AB2AE4B1A8001233B603B68002B18D0A84B1B78DAB201231340DBB2002B01D0012300E00223A54A6B
:40260000128892B291B21A1C0B1C13439BB29AB2A04B1A809D4B00221A709C4B1B78DAB220231340DBB2002B00D1ACE1984B1A68102313401CD0984B10221A60934B1B788B
:40264000DAB201231340DBB2002B01D0012300E00223904A128892B291B21A1C0B1C13439BB29AB28B4B1A80884B10221A70C0E1864B1B78DAB208231340DBB2002B29D09F
:40268000834B1A68022313400ED0834B02221A60804B1B889BB28822920013439AB27D4B1A8001233B6015E0784B1B78DAB201231340DBB2002B03D0744B25221A7009E0FC
:4026C000724B24221A70754B1B68002B02D0744B10221A606D4B1B78DAB204231340DBB2002B00D113E1694B1B78DAB201231340DBB2002B5CD06B4B1A680823134034D0EC
:40270000694B1A68694B19680F231940684B1B68CB18D31A7B607B68082B02D908237B600DE07B68002B0AD1624B624A1168624A0A401A6008237B6001233B6011E010E00D
:402740005E4B1A685A4B1B68D2185D4B1B68DBB21370574B1B685A1C554B1A607B68013B7B607B68002BEBD11EE04E4B1A680423134019D0514B1A684D4B1B68D218504B2E
:402780001B68DBB213704A4B1B685A1C484B1A60474B1A68444B1B689A4203D2494B04221A6001E001233B60474B484A1A60AEE0374B1A680223134032D0374B02221A6076
:4027C000434B1A68434B19680F231940414B186880231B02034001D0012300E00023CB18D21A3B4B1A603A4B1A683B4B1A60294B1B889BB28422920013439AB2254B1A800A
:40280000364B364A1268802149020A431A60334B324A1168324A0A401A6001233B6076E0304B1A681023134066D015E0284B1A681A4B1B689A420ED22B4B2C4A1168244A88
:4028400012688A181278D2B21A60214B1B685A1C1F4B1A6000E005E01E4B1A680F231340082BE3D11A4B1A680C4B1B689A4202D10B4B40221A601E4B1E4A1A6047E0C04635
:40288000100100208C0E0640880E0640740100200C0F064084010020000F064080010020880F0640CC0F064090010020080306409401002060000640FFFEFFFF880100209B
:4028C0004003064068000640C00F0640ED0F000078010020080206407C01002004020640FFFFFEFF8C0F06404002064098010020800F0640F30700003F4B1A684023134010
:4029000005D03E4B1A683E4B1A6001233B603B68002B6ED03B4B3B4A11683B4A0A401A603A4B00221A603A4B00221A60394B1B78DAB202231340DBB2002B19D0364B1B780A
:40294000DAB201231340DBB2002B01D0092300E00A23324A128892B291B21A1C0B1C13439BB29AB22D4B1A802B4B60221A7040E02B4B2C4A116820220A4001D0182200E019
:4029800010221A6035E0244B1B78DAB210231340DBB2002B2DD1244B234A1268520052081A601D4B10221A70164B164A11681F4A0A401A60134B134A11681D4A0A401A6026
:4029C000124B00221A60124B00221A60194B1A4A1A601A4B1A4A1A601A4B1B4A1A601B4B1B4A1A60104B104A1268802109060A431A60BD4602B080BD8C0F064078010020C5
:402A00007C01002060000640FFFEFFFFC80F0640880F06408C0100207401002084010020680006406400064000000640FF5FFFFFFFFCFFFF800F0640ED0F0000C00F06409E
:402A4000F3070000400F0640FF0F0000000F064017030000002934D00123002210B488422CD301242407A14204D2814202D209011B01F8E7E400A14204D2814202D2490028
:402A80005B00F8E7884201D3401A1A434C08A04202D3001B5C0822438C08A04202D3001B9C082243CC08A04202D3001BDC082243002803D01B0901D00909E3E7101C10BC76
:402AC0007047002801D00020C04307B4024802A14018029003BDC046D90000000029F0D003B5FFF7B9FF0EBC4243891A1847C046002941D010B4041C4C40A4460123002252
:402B0000002900D54942002800D5404288422CD301242407A14204D2814202D209011B01F8E7E400A14204D2814202D249005B00F8E7884201D3401A1A434C08A04202D308
:402B4000001B5C0822438C08A04202D3001B9C082243CC08A04202D3001BDC082243002803D01B0901D00909E3E7101C6446002C00D5404210BC7047002806D003DB00206F
:402B8000C043400801E08020000607B4024802A14018029003BDC046190000000029EBD003B5FFF7A7FF0EBC4243891A1847C0467047C046002B15D1002A13D1002900D16D
:402BC000002807D003DB0020C043410802E080210906002007B4024801A14018029003BDD1FFFFFF03B4684601B5029800F058F8019B9E4602B00CBC7047C0469E2110B58B
:402C0000C905041C01F0F8F8002803D1201C00F0F3F910BD9E21C905201C00F077F800F0EBF980231B06C018F3E7C0460000000070B5164D144C021C061C0B1C1648A41803
:402C40005D41854219D9520504D0F60AF302802636011E43081C00F0A1FF0D4A0D4B00F00DFD0D1C041C301C00F0D6FF2B1C221C00F0E2F901F004F870BD8542EAD1A01C40
:402C8000E1D8E7E7C046C046FFFFFFFFFFFF1F00000000000000F041FFFF3F00C046C046F0B583B0161C1F1C0090019101F0EEF8041C0D1C221C2B1C301C391C01F0C4F894
:402CC000009A019B121A8B410899201C0A604B60291C03B0F0BDC046F0B583B0141C1D1C0090019101F0AEFA221C2B1C061C0F1C01F0AAF8009A019B121A8B410899301C8D
:402D00000A604B60391C03B0F0BDC046F8B5C20F430244004D024800240E161C9B09000EC90FAD09FF2800D183E0012779408A425CD0221A002A00DC8EE000281ED1002D59
:402D400000D07AE0580704D00F221A40042A00D004338021C90401221940324000293AD00134FF2C00D183E09B015B0A5B02E4B2E405580AD20720431043F8BDFF2CE1D0B4
:402D80008021C9040D431B2A00DD31E1291C2020D140821A95406A1E95410D435B1B5801D0D59B019F09381C01F030F8421F974094425FDC141B1F231B1B3A1C9F40611CA5
:402DC0003B1CCA405F1EBB4113430024BAE7131EB8D100230022DB08FF2C04D1002B47D08020C00303435B025B0ABFE7211A002944DD002827D0FF2CA4D08020C0040543BA
:402E00001B2900DDF2E0281C2027C840791A8D40691E8D4105435B19590100D492E70134FF2C59D0734901221A400B405B08134388E7002D00D07AE777E7013A002AADD021
:402E4000FF2CA0D17EE7002D00D17BE701390029E1D0FF2CD4D175E7002A1BD1621CD2B2012A4BDD5F1B7A0123D5EF1A0E1C9AE700237BE75F4BA41A3B4063E7002946D1B3
:402E8000611CC8B2012829DDFF2924D0EB185B080C1C57E7002C13D0FF2818D08024E404524223431B2A4DDD0123EB1A041C0E1C75E7002F00D076E70023002200248AE7EC
:402EC000002B3BD0D243002AEFD0FF28EAD12B1CFF240E1C36E7FF2400237CE7002C5CD1002B00D180E0002D00D12BE75B19580100D427E73F4A0124134023E7002C15D1D1
:402F0000002B40D1002D63D02B1C0E1C1AE7002C21D1002B54D0C943002904D0FF284CD01B2958DD01235B19041C75E7002B19D1002D48D02B1C0E1CFF2403E72B1C041CFE
:402F40000E1CFFE61C1C2026D440B21A93405A1E93412343A9E7FF282FD08024E40449422343DDE7FF24002D00D1EBE68022DB08D203134204D0ED08154201D12B1C0E1C64
:402F8000DB00FF24DEE6002D00D1DBE65A1B500100D41CE7EB1A0E1CD4E6002B0DD0FF24002D00D1CEE68022DB08D2031342E7D0ED081542E4D12B1CE2E72B1CFF24C1E6A5
:402FC0002B1C041CBEE6802300229B04FF2402E7231C0022FFE61C1C2027CC40791A8B40591E8B4123439EE72B1CABE6012512E70125D3E6FFFFFFFB4302590A4300C20F6F
:403000001B0E00207E2B0DDD9D2B0CDC802000040143952B0ADC9620C31AD9404842002A00D1081C7047034BD018FBE7963B9940F4E7C046FFFFFF7FF8B55F4656464446D3
:403040004D46F0B40C034D00CE0F610A440F2143C400180380465800400D8246D80F84464046400A530F0343D0006D0D371C83465246664500D1A4E0AF1A002F00DC09E1C7
:40308000002A3BD1184300D0EAE0630700D187E00F232340042B00D182E0221DA242A4416442802309191B040B40371C141C002B00D17CE0CE4B01359D4200D105E1CD4B97
:4030C000E40819404807490204430B0B002000211B031A0B0B0D6D051B0513436A08C64DFF071D4015436D006D08291C3943201C3CBC90469946A246AB46F8BDBC488542EB
:40310000C3D0802000040343382F00DDF0E01F2F00DD24E12020C01B1A1C814682405846F8400243944658464A469040421E9041FB40624602431F1CA21A9442A441644250
:40314000C91B091B141C0B029FD549024F0A002F00D1C8E0381C00F059FE021C083A1F2A00DDB5E02821091A201C9740C84007439440954200DDB2E0551B691C1F2900DD8F
:40318000DCE01F22551B3B1C221CAB40CA40AC40651EAC411343CF401C43391C002574E780231B040B40371C002B00D082E7904B4807E4080443C9089D4248D009030B0B18
:4031C00084E7AA1A9446002A00DC98E05046002852D08748854200D157E78020000403436246382A00DDFCE01F2A00DD4AE120226046101A1A1C82408246914658466246D6
:40320000D0404A4602439046584652469040421E9041424602436046C3401219A242A441644259180919141C080200D42DE7704B01359D4200D122E16E4B60081940012395
:4032400023401C1C0443CB071C4349081DE7231C0B433AD080231B030B431B031B0B35E7013F002F65D15846221A9442A4416442C91A091B141C66E75846184300D104E7C7
:403280000122524294446046002800D0C5E058460219C3E7002F73D1681C4005400D012800DCDEE05A46A21A9442BF41C81A7F42C71B380200D489E05A46141BA3459241D5
:4032C000591A52428F1A664641E700230024FDE6271C283887400024954200DC4CE74549AD1A3940D1E6201C00F090FD203034E75A461A43531E9A41D2B200271CE7002AE2
:4033000000D0DCE0681C4205520D012A00DC8DE0374DA84200D1F3E05D462A19A242A441644259180919CC07520814434908051CABE62F48854200D0E6E6A6E62B1C1F3BDB
:403340003A1CDA40131C20296CD03F22551BAF403C43601E84411C430021002595E6381C20381A1CC240101C202F5DD04022D71BBB405A461A43531E9A4102430027DBE636
:40338000002D3BD01A4DAA4500D193E080252D047F422943382F00DDACE01F2F00DD29E12025ED1B081C261CA840FE40AC400643651EAC413443F9405D462C1BA345924160
:4033C0005B1A5242991A55466646BCE6131C3B43141C002B00D0BAE60027002100250024E5E65A461A43531E9A41D2B2002314E7FF070000FFFF7FFFFFFF0F800D1C2543C9
:4034000058D0FF43002F51D1041BA3459241591A5242891A5546664695E69648854200D0DEE632E6002793E70023A2E7081C2043002D00D0C4E0002800D1F7E058461843FC
:4034400000D122E658460219A242A441644259180919141C0A0200D417E6874B0125194013E6081C2043002D39D1002871D15946194303D0191C5C46664606E600270021B4
:40348000002494E6604620381A1CC24060469146202800D1ACE04022121A93405A461A43531E9A414B461A430023B6E6714DAA4500D06FE7191C5C4655466646E5E5002DD7
:4034C00022D10D1C254377D0D543002D71D15C445C4592415918524289185546A4E600284DD15946194300D194E0191C5C466646604DCAE50C43611E8C41E4B200215BE7A2
:40350000051C0021002452E65A4DAA4554D05542802210040143382D00DD81E01F2D00DD92E02022501B0A1C84468240201CE8400243904662469440601E844142461443E8
:40354000E9405C445C459241CB185242991855466AE65846184300D197E55846271ABC429241C81A5242801A020266D55846041BA3459241591A5242891A664685E55846E0
:40358000184333D04807E40804438020C9080003014208D0DD08054205D15946CA085C071443291C6646630FC9001943E400314D6BE5304A9245AED1191C5C46554664E5AA
:4035C000002836D05846184310D080254807E408C9082D0304432942E5D0D8082842E2D15D46EA085C071443011CDCE7214D4CE5002353E73D1C203D0A1CEA40151C202FCE
:4036000034D04026F71BB9400C43611E8C412C430021D1E680210027C903164D0024C6E50C43611E8C41E4B200218AE7191C5C462BE5191C5C460F4D27E5031C3B4300D116
:403640001CE7011C3C1C20E52020404240190A1CC2409046202D0BD04020451BA9400C43611E8C4145462C4300216AE70021CBE70021F4E7FF070000FFFF7FFFF0B556464A
:4036800044465F464D46F0B41F1C0B031B0B9A464B0087B0041C80465B0DC80F161C02938146002B68D0694B0299994232D08022534652031A43D200630F1A439246644A7D
:4036C000E000891880460291002400253B031B0B9B467800FB0F321C400D039300D175E05A4B984269D08022594652030A43730FD2001A43564B9346C018F200002303993A
:403700004E4671401C430F2C00D9A9E0514EA4003459A74653461C4300D087E00025AA46A84608240225D1E74946022D6CD0032D00D117E2012D00D058E10D40EDB2002413
:40374000A9460023A0460020002125030A0D1C052D0B1205404B2A43134023435B004C465B08E207191C4046114307B03CBC90469946A246AB46F0BD5346234350D05346C6
:40378000002B00D184E1504600F040FB031E272B00DD76E128210D1A211C083B5246E9409A400D1C1543221C9A40AA4690462B4B00241B1A0293002588E75B461E43032336
:4037C000002E9CD1B3460022022398E75B46334321D05846002800D14EE100F017FB272800DD42E128210F1A021C311C083A5B46F94093400F1C1F43331C9340BB461A1C9E
:40380000164B181A00237AE701230B4000249946A0460E4B97E70027BB46002201236EE7002104248A46884601254FE70C2403254CE700258024A9462403A846034B82E72D
:40384000DA46904603991D1C6FE7C046FF07000001FCFFFF58490000FFFF0F800DFCFFFF029F160C381804904046070C0004000C1204120C031C5343041C3D1C74435543EA
:4038800098463B1C73436419A44644460293230C63449D4204D9029D802464022D1902951D0C039545462C041B04240C1C1905945C46230C051C58432404240C8446381CE3
:4038C000604365435F438146CC44280C6044BB46814502D980277F02BB442D04070C2D0C000440195546BC462F04E3448446280C3D0C2F1C5743B8462F1C77434243B946DF
:4039000047463F0C9144BA46D14446434A4502D980225202B6184F463A0CB6183A0447463F043F0CB8462F1C67435D434443584365190190380C2D184244B846AC4204D970
:40394000019880235B02C0180190039C029F201C6044C0196045A44147466442A4462B043C049946240C4C44A046D8448018C246E24490429241574652429146F219E245F0
:40398000BF417F424B46BC46D845BF41D4187F4263461F432D0C7F19B24292414C45AD4152426D421543019E7D19AB19E20D5B02059F134342023A439A46531E9A41C30D30
:4039C000101C18436402204380465046C0010DD5454601225646049C6B082A401A43F30701341A43760804949046B246049E634FF319002B61DD404640070BD00F224446B8
:403A00002240042A06D042460432424580414042824490465546ED0107D5594B5646049F80201E40C000B2463B18564A934200DDEAE644465546E2086807104301226C0227
:403A40005B050A408046240B5B0D91467BE6DA4690461D1C69E680242403574627421CD13C432403240B484B6DE6031C283B311C99408B460022C3E6301C00F0C7F9203080
:403A8000ADE6283B211C994000228A4690468EE6201C00F0BBF9203078E65846204207D1044303992403240B89469046364B4AE63C432403240B344B45E6344B049E9B1B73
:403AC000382B06DD01230B4000249946A046002339E61F2B25DC049C2D4D46466019524644468640DC4082405746301C2243DF40441EA04102433B1C540709D00F201040B7
:403B0000042805D0101D9042924152429B18021C1D021AD501230B4000249946A046012311E61C48049C5546001BC540281C202B16D0194E5746A21997403A1C43461A43C6
:403B4000531E9A4102430023D6E758075B02D2081C0B01230B401043994680460023F2E50022EBE78024240350460123044319402403240B8946044BE5E5C046FF03000057
:403B8000FFFFFFFEFE070000FF07000002FCFFFF1E040000E2FBFFFF3E040000F8B5041E31D0C70F00D04442201C00F02FF9184D2D1A0A2819DD0B38844024036D05240BD1
:403BC0006D0D3A1C0026002000210B0D2403240B1B0523430F4C2D051C402C4364006408D307211C301C1943F8BD061C1536231CB3401E1C0B23181AC44024036D05240BF9
:403C00006D0D3A1CDFE70022002500240026DAE71E040000FFFF0F8010B5041E28D000F0F5F8154A121A0A2815DD0B38844024035205240B520D0023002000212403181CB0
:403C40000B0D240B1B0523430C4C12051C4014436400610810BD031C1533211C99400B1C0B21081AC44024035205240B520DE3E7002200240023DFE71E040000FFFF0F8011
:403C8000F0B54B000D03420F5B0D6D0A15435A1C5205CC0FC600520D012A27DD394FDA19FE2A1ADC002A35DD8001ED00431E98412843760F3043430704D00F230340042BDE
:403CC00000D004308021C904014027D00132FF2A1DD083015B0AD1B201E0FF2100235802C905400AE40708432043F0BD002B06D1354311D10021002043025B0AEFE72E43FB
:403D0000EBD08020ED0080042843FF22D3E7FF210023E4E717320DDA05200022C008D1B2FF2AE9D10028D9D08023DB0303435B025B0AD4E78022144912041543C91A1F2911
:403D40000DDC124A371C9B18281C9F4098403B1C5A1E93411843CE4030430022ABE70C4F2A1CFF1AFA40171C202909D0094A98188540281C3043461EB041384300229AE78F
:403D80000020F7E780FCFFFF9E03000082FCFFFF7E030000A2FCFFFF8446081C6146FFE71FB500F083FC002801D40021C8421FBD10B500F009FC4042013010BD10B500F0A0
:403DC00075FC002801DB002010BD012010BDC04610B500F06BFC002801DD002010BD012010BDC04610B500F019FC002801DC002010BD012010BDC04610B500F00FFC0028D2
:403E000001DA002010BD012010BDC0461C2101231B04984201D3000C10391B0A984201D3000A08391B09984201D30009043902A2105C40187047C0460403020201010101D9
:403E400000000000000000009C460304F0B51B0C17043F0C150C1E1C041C000C7E436B4347434543FB18300C1818874202D980235B02ED18030CED1863465C434A433604D4
:403E8000360CA118000480194919F0BDF0B544465F4656464D46F0B41C1C85B0002900DADBE00F1C0021061C8A46101C191C002C00DAC9E00196009089468046002951D134
:403EC000B84200D871E0FFF7A1FF002809D020234546311C1B1A85408740D940A8460F4386404246150C13041B0C291C381C9B46FEF7B0FD5B464343041C291C381C99464B
:403F0000FEF7ECFD330C08041843814509D94044631E804500D978E1814500D875E1023C40444946411A8946081C291CFEF792FD5A464243071C291C48469346FEF7CEFD49
:403F400036040904360C0E43B34507D946447B1EB04502D8023FB34500D81F1C24042743002403E0B94211D9002400275246381C211C002A03D03B1C00215842A14105B0B9
:403F80003CBC90469946A246AB46F0BD081CFFF73DFF041E00D0BFE0B94500D242E1019D0099071C8D424741E0E7002804D101200021FEF74FFD80464046FFF727FF00286C
:403FC00052D1414644460B043C1B1B0CA3460D0C00930124291C5846FEF73CFD009F81464743291C5846FEF779FD330C090419438F4208D94B464144013B884502D88F42D3
:4040000000D91AE19946C91B8B46081C291CFEF721FD009B291C4343071C58460093FEF75DFD3604009D0904360C0E43B54207D946447B1EB04502D8023FB54200D81F1C08
:4040400049460E04374391E75246D243031C0C1C924600215842A1412CE7002746428F41012149428A4620E720231B1A4246351C82403C1CDD40DC4087402B1C150C3B43DD
:40408000291C8640201C009317049046FEF7E2FC3F0C011C794381468B46201C291CFEF71DFD009C0904230C19438B450CD94B464144013B884500D9BDE08B4500D8BAE056
:4040C00002225242914441445C460C1B201C291C0194FEF7BFFC391C4143041C8B460198291CFEF7FBFC009A090413041B0C19438B4509D94144631E884500D997E08B45A5
:4041000000D894E0023C41445B46CB1A49469B460B041C4300975DE7009D20231B1A4A468240DD401543391C009AD94082408846311C0092D9403A1C82400B1C134301939C
:404140002F0C2B041B0C391C40460293FEF782FC029A81464243391C40469346FEF7BEFC019A0904130C19438B450AD94B464919013B8D425DD88B455BD902235B429944D4
:4041800049195A468A1A101C391C0392FEF762FC029B80464343391C03989B46FEF79EFC019A090413041B0C19438B450AD943464919013B8D4238D88B4536D902235B420B
:4041C000984449195D464D1BAB464946009D0F04424617432A04120C3B042D0C1B0C380C111C594342436B436843D3180D0C5B198C469A4202D98022520280181D0C40197D
:4042000083450CD303D00024B0E61C1C89E665462A041B04120C9B18A6409E42F3D2013F0024A3E600240127A0E69846CAE71C1C6AE79946A5E7994646E702225242914474
:404240004144E0E6F0B55F4656464D464446F0B40D1C85B0061C924698460290019103921F1C141C8346A946002B59D1AA4269D9101CFFF7CBFD00280AD020231B1A311C06
:40428000D94085400B1C2B43864084409946B346250C23041B0C291C48469846FEF7DAFB4646071C4643291C4846FEF717FC5A460904130C19438E4209D909197B1E8C42B9
:4042C00000D957E18E4200D854E1023F0919891B8946081C291CFEF7BDFB43464343061C291C48469846FEF7F9FB5A46130409041B0C1943884508D90919731E8C4200D9CA
:4043000036E1023E884500D832E1380430430027391C05B03CBC90469946A246AB46F0BD019A934262D8181CFFF770FD041E60D1019B9F4200D22CE1029F03998F426041BC
:404340000027E5E7002A04D101200021FEF782FB041C201CFFF75AFD002800D0B9E023042D1B1B0CA946260C98460127311C4846FEF770FB41464143051C8A464846311C8E
:40438000FEF7ACFB5A460804130C1843824507D900196B1E844202D8824500D910E11D1C5346C31A181C311C9A46FEF753FB41464143814688465046311CFEF78FFB5A46CC
:4043C000130409041B0C194388450BD94B460919013B8C4200D9CFE0884500D8CCE002235B42994428044946084391E7002700208EE720231B1A424657468240DF4017431E
:40440000524682400192321CDA40291CD9408540131C2B4302933D0C3B041B0C8846081C291C9A46FEF716FB534643438146291C40469B46FEF752FB029A0904130C19430E
:404440008B4506D94B46C919013B8F4200D8ABE099465A468A1A101C291C9346FEF7FAFA53464343291C804658469A46FEF736FB029A090415042D0C29438A4506D94346E8
:40448000C919013B8F4200D886E098465746CF1BBA464946019F0804424610433D042D0C03043F0C1B0C020C291C594355437B437A43EB180F0CDB198C469D4202D980271A
:4044C0007F02D2191D0C521992455FD356D000271EE720231B1A311C2F1CD940DF4085400B1C84402B4386400193B3462304260C1B0C381C311C9846FEF7ACFA4246424301
:40450000051C311C381C9146FEF7E8FA019F09043B0C1943894507D909196B1E8C424DD889454BD9023D09194A468A1A101C311C9246FEF78FFA43464343071C311C504604
:404540009946FEF7CBFA019A090413041B0C1943894507D909197B1E8C422DD889452BD9023F09194B46CB1A2D0499462F43FDE61E1CCAE61F1CAAE6994633E761460A04B1
:404580001B04120C9B18A6409E42A0D201380027BEE600270120BBE68A4500D875E702235B429844C91971E78B4500D850E702235B429944C9194CE71F1CD3E71D1CB3E7B0
:4045C000023D0019ECE6C0464A02430270B55C0A550A43004A001B0EC60F120EC90FFF2B05D0FF2A08D0012093420BD070BD0120002CFBD1FF2AF6D10120002DF6D1012050
:404600009342F3D1AC42F1D18E4205D0002BEDD1201C441EA041E9E70020E7E74A024302F0B55C0A550A43004A001B0EC60F120EC90FFF2B31D0FF2A34D0002B16D16042DC
:4046400060418446002A14D0002820D18E4217D1934215DC04DBAC4212D80020AC4212D2704270414042012318430CE0002AEDD194466F426F416046002805D1002FE5D086
:40468000704201231843F0BD0020002FFBD148424841404201231843F5E7002CCBD002204042F0E7002DC8D0F9E7C0464A024302F0B55C0A550A43004A001B0EC60F120E7E
:4046C000C90FFF2B27D0FF2A29D0002B10D0002A15D194466F426F416046002815D00020002F04D148424841404201231843F0BD604260418446002AECD00028F2D18E4203
:4047000011D0704201231843F1E7002FF7D0704201231843EBE70220002CE8D1D3E70220002DE4D1D1E79342EBDC04DBAC42E8D80020AC42DBD270427041404201231843D1
:40474000D5E7C04670B50E4B0E4D0024ED1AAD101E1CAC4204D0A300F35898470134F8E700F01AF9084B094D0024ED1AAD101E1CAC4204D0A300F35898470134F8E770BD3B
:40478000A4490000A4490000A4490000AC490000031C8218934202D019700133FAE7704700000000E8F6FF7F0100000009000000090000007E0F00008E0F00004A0F000096
:4047C0008E0F00008E0F00005C0F00008E0F00008E0F00008E0F00008E0F00008E0F00008E0F00008E0F0000860F00003C0F00008E0F0000760F00006E0F000000300F40CB
:40480000000400400F40000401000F4028300F4007310F4033320F4015330F4002400F4003410F4002600F40830D405449FF4AFF4BFF4F0150185A045D095F016040624026
:4048400064406540668068806A806C806E80C041C9FFCAFFCBFFCD83CE03CF01D018D280DA04DB04DD99DF01E040E240E440E540E680E880EA80EC80EE80410146814801D4
:4048800074017680D091D208404149FF4AFF4BFF4D834E034F0150185A045D095F016040624064406540668068806A806C806E8082018E01B601BE40C054C5ECC720C8237E
:4048C000C9FFCAFFCBFFCD83CE03CF01D018D401D604D804DA04DB04DD99DF01E040E240E440E540E680E880EA80EC80EE80000202011940410146814801490551015201A6
:4049000059456380834095029A809E01A001C009D091D208D60BD8016F10DA8083109F10E220020111010000030405060708090A0B0C0E0F101112131415161718191B1CE6
:404940001D1E1F2021222325262728292A2B2E2F3031323334350000603800004E3A00004E3A0000403800002A3700002A37000032380000403800002A3700003238000024
:404980002A37000040380000283700002837000028370000563A0000F8B5C046F8BC08BC9E46704739020000BD130000F8B5C046F8BC08BC9E46704711020000D0490000AE
:4049C000C800002018000000C000000000000000000000000100000000366E01C05D0000180000000000E02E0000000000000000000000000000000000000000000000000E
:404A00000000000000000000000000000000000000000000000000000000000000000000000000000000000000000000000000000000000000000000000000000000000076
:404A40000000000000000000000000000000000000000000000000000000000000000000000000000000000000000000000000000000000000000000000000000000000036
:404A800000000000000000000000000000000000000000000000000000000000000000000000000000000000000000000000000000000000000000000000000000000000F6
:404AC00000000000000000000000000000000000000000000000000000000000000000000000000000000000000000000000000000000000000000000000000000000000B6
:0200000490303A
:020000005D8120
:0200000490402A
:200000000000000000000000000000000000000000000000000000000000000000000000E0
:0200000490501A
:0C000000000204C81193110104E06F1409
:0200000490600A
:0100000001FE
:00000001FF